:020000040000FA
:100000000A128A11E82F00308A000408840A820745
:1000100000343134353439343834003453344934CD
:100020005334543445344D344134203442344C3408
:100030004F34513455344534413444344F342034F2
:100040005E342D345E34003443346C3461347634A1
:100050006534203449346E3463346F34723472340E
:10006000653463347434613420343A3443340034B6
:1000700043346C34613476346534203443346F3423
:1000800072347234653463347434613420343A34F5
:10009000443400344F34743472346F34203449346F
:1000A0006E34743465346E3474346F3420343A34BE
:1000B0004334003449344E34473452344534533495
:1000C0004534203443344C344134563445340034C0
:10092000F030FF007F08831603138605F030FF00C8
:100930007F0886048113831603178901080001309C
:100940000A128A1156250A128A110830F400C93099
:10095000F300F30BA92CF40BA92CAE2C08003134B6
:100960003234333441343434353436344234373429
:100970003834393443342A3430342334443404345E
:1009800000347E088A007F0882000A128A11C1247E
:100990000A128A118000840A04087D0603190034B3
:1009A000FF0A0319FE0AC52CF200831603138901FE
:1009B000720C83120313031C091003180914700C22
:1009C000031C891003188914710C031C09110318E6
:1009D00009150800F300FC2C730884000A128A1120
:1009E00003200A128A110A128A118C250A128A110E
:1009F0000130FF007F08F307730884000A128A1190
:100A000003200A128A11003A031D072D082DEC2C31
:100A10000800F6000230760203180F2D102D1B2D52
:100A200074080F398038F70077080A128A115625A2
:100A30000A128A11252D74080F39C038F70077087B
:100A40000A128A1156250A128A1175080A128A1189
:100A5000EA240A128A11080083160313880127303A
:100A6000F400F530F300F30B332DF40B332D02308B
:100A70000A128A1156250A128A1128300A128A117E
:100A800056250A128A1101300A128A1156250A12B5
:100A90008A110C300A128A1156250A128A11063060
:100AA0000A128A1156250A128A110800F200F03043
:100AB0007205F0008312031308080F3970048800D0
:100AC0000810881400008312031388100330F1000B
:100AD0009730F000F00B6A2DF10B6A2D6F2D720824
:100AE000F00004300310F00DFF3E031D722D831241
:100AF000031308080F39700488008814000083125B
:100B0000031388100830F100C930F000F00B862D77
:100B1000F10B862D8B2D0800F200F0307205F000ED
:100B20008312031308080F3970048800081488140E
:100B300000008312031388100330F1009730F00097
:100B4000F00BA02DF10BA02DA52D7208F0000430A4
:100B50000310F00DFF3E031DA82D83120313080898
:100B60000F39700488008814000083120313881062
:100B70000830F100C930F000F00BBC2DF10BBC2D9A
:100B8000C12D0800F500F72D7508840083130008B7
:100B90000319CB2DCC2DDC2D700884000A128A118C
:100BA00003200A128A11F3007508840000087306F6
:100BB0000319DB2DDC2DEF2D700884000A128A1139
:100BC00003200A128A11F300750884000008F4005B
:100BD00073087402F000F101031CF103072E0130C9
:100BE000FF007F08F5070130FF007F08F0070130A4
:100BF000F1020030031CF203F202710A031D042EFD
:100C0000720A031D042E052EC42DF001F101080007
:100C1000203084003330F0000408F1001030F2007E
:100C20007008840083130008F300F00A7108840040
:100C300073088000F10AF20B102E83120313B00127
:100C4000B101B2018312031331083204031D292EAE
:100C50002A2E4F2EFE3086004230F000F00B2E2E52
:100C60000000342E2008B00083120313061E392E14
:100C70003A2E322E3D2E2108B000861E402E412EE7
:100C80003B2E442E2208B000061F472E482E422E2F
:100C90004B2E2308B000861F4E2E4F2E492E3103B7
:100CA0003204031D542E552E7A2EFD30860042301C
:100CB000F000F00B592E00005F2E2408B0008312C4
:100CC0000313061E642E652E5D2E682E2508B000C7
:100CD000861E6B2E6C2E662E6F2E2608B000061F09
:100CE000722E732E6D2E762E2708B000861F792E59
:100CF0007A2E742E023031063204031D802E812E8E
:100D0000A62EFB3086004230F000F00B852E00004E
:100D10008B2E2808B00083120313061E902E912EEE
:100D2000892E942E2908B000861E972E982E922E7A
:100D30009B2E2A08B000061F9E2E9F2E992EA22EB3
:100D40002B08B000861FA52EA62EA02E033031063C
:100D50003204031DAC2EAD2ED22EF7308600423069
:100D6000F000F00BB12E0000B72E2C08B00083125B
:100D70000313061EBC2EBD2EB52EC02E2D08B000AE
:100D8000861EC32EC42EBE2EC72E2E08B000061FF0
:100D9000CA2ECB2EC52ECE2E2F08B000861FD12EE8
:100DA000D22ECC2E0130B1070318B20A0030B207A0
:100DB0003208803AFF0080307F02031DE12E0430AC
:100DC0003102031CE42EE52E222E83120313300879
:100DD00008007130831603138F00831603178801F0
:100DE0000A128A112C250A128A110A128A119024D9
:100DF0000A128A11831203134408803AFF008030DC
:100E00007F02031D052F01304302031C082F092F09
:100E10009E2FF4015230F50000300A128A11092584
:100E20000A128A11C0300A128A1156250A128A1132
:100E30000A128A1108260A128A11FB007B0803197C
:100E4000222F232F332F2A300A128A118C250A12BF
:100E50008A117C08453E84007B08831380000130A2
:100E6000FF007F08FC070230FA000430F900BA30B6
:100E7000F800F80B392FF90B392FFA0B392F000036
:100E800004307C02031C452F462F182F0130F00040
:100E90000430F1000030F20045300A128A11C225F8
:100EA0000A128A1170087104031D572F582F702FD2
:100EB0000A128A119F240A128A11F4013030F500B7
:100EC00000300A128A1109250A128A11F001F00A6B
:100ED000F10100300A128A11D4240A128A11C92F92
:100EE0000A128A119F240A128A11F4011C30F5009B
:100EF00000300A128A1109250A128A11F001F10143
:100F0000F10A00300A128A11D4240A128A110A1234
:100F10008A119F240A128A11F4014230F500003030
:100F20000A128A1109250A128A11FF30831203134B
:100F3000C3070318C40AFF30C407C92FF4010630E1
:100F4000F50000300A128A1109250A128A11F001EF
:100F5000F10101300A128A11D4240A128A111530C3
:100F6000FA004B30F900BE30F800F80BB52FF90B42
:100F7000B52FFA0BB52F00000A128A119F240A120E
:100F80008A11F001F10100300A128A11D4240A12E8
:100F90008A111530FA004B30F900BE30F800F80B1A
:100FA000CF2FF90BCF2FFA0BCF2F00000A128A1187
:100FB0009F240A128A11FC01F001F10100300A128B
:100FC0008A11D4240A128A11FA2E0A128A110028D0
:100FD00083134530FD000430FE00AF30FF00333096
:100FE00084000A128A11C5240A128A11C501C60199
:100FF000C701C801C901FC0183010A128A11E92E47
:04400E00D520FF3F7B
:00000001FF
